:1000000023C100003CC100003AC1000038C100001B
:1000100036C1000034C1000032C1000030C1000010
:100020002EC100002CC100002AC1000028C1000020
:1000300026C1000024C1000022C1000020C1000030
:100040001EC100001CC1000030C2000053C20000ED
:1000500016C1000014C1000012C1000010C1000050
:100060000EC100000CC10000000000000000004FA5
:1000700000000007000700147F147F14242A7F2A41
:10008000122313086462364955225000050300000C
:10009000001C2241000041221C0014083E081408E4
:1000A000083E0808005030000008080808080060F2
:1000B00060000020100804023E5149453E00427F86
:1000C000400042615149462141454B311814127F8D
:1000D0001027454545393C4A494930017109050316
:1000E0003649494936064949291E36360000005628
:1000F00036000000081422410014141414140041A6
:100100002214080201510906304979413E7E11113D
:10011000117E7F494949363E414141227F4141227A
:100120001C7F494949417F090909013E4149497AF2
:100130007F0808087F00417F41002040413F017F48
:10014000081422417F404040407F020C027F7F0420
:1001500008107F3E4141413E7F090909063E415159
:10016000215E7F09192946464949493101017F012C
:10017000013F4040403F1F2040201F3F4030403F54
:100180006314081463070870080761514945430068
:100190007F41410002040810200041417F00040219
:1001A0000102044040404040000102040020545439
:1001B00054787F50484830384444442038444448B8
:1001C0007F3854545418087E0901020C5252523E92
:1001D0007F0804047800447D40002040443D007FB7
:1001E0001028440000417F400078045844787C087F
:1001F00004047838444444387C1414140808141453
:10020000187C7C080404084854545420043F44409B
:10021000203C4040207C1C2040201C3C4030403C86
:1002200044281028440C5050503C4464544C440022
:100230000836410000007F000000413608000C0233
:100240000C100C000000000011241FBECFEFD8E0FE
:10025000DEBFCDBF11E0A0E0B1E0E4ECF5E002C00C
:1002600005900D92A430B107D9F713E0A4E0B1E0F6
:1002700001C01D92A632B107E1F730D0A1C1C0CEB6
:1002800020910401309105012F3F310570F4E09178
:100290000001F0910101A9014F5F5F4F50930501EB
:1002A00040930401E20FF31F8083882311F08A300A
:1002B000A1F48091020190910301209100013091FD
:1002C0000101309303012093020190930101809377
:1002D000000110920501109204010895CF93DF935D
:1002E000CDB7DEB7C857D1090FB6F894DEBF0FBE41
:1002F000CDBF80E190E828D180E090E066E472E52F
:10030000E1E4AC01437055272091020130910301D3
:10031000D901A80FB91F4130510529F042305105CC
:1003200021F0EC9303C06C9301C07C9301968F3F46
:10033000910539F78AB18C6F8AB984B1836084B929
:100340005A985B985C9A5D9828985F985E9820E030
:1003500030E0B12C8E01015E1F4F86E0E82EF12CBB
:100360006E0149E7C40ED11C91E081E05A9855E036
:100370005A95F1F700005A9A75E07A95F1F7000066
:1003800044E0FE01319655B15D7F6191692311F022
:1003900062E001C060E0562B55B955E05A95F1F77F
:1003A00000005B9A75E07A95F1F700005B98E01722
:1003B000F10749F7299855E05A95F1F700005B9A43
:1003C00075E07A95F1F700005B9855E05A95F1F7E2
:1003D00000005B9A75E07A95F1F700005B98415058
:1003E00081F65C9A45E04A95F1F7000080FD289A75
:1003F00080FF28984BB14F7781FF02C050E801C0C1
:1004000050E0452B4BB94BB14F7B82FF02C050E40B
:1004100001C050E0452B4BB955E05A95F1F700006B
:100420005D9A75E07A95F1F700005D985C988F5FB2
:10043000990F883009F09ACFC901B7019AD040913D
:10044000020150910301DE011196853021F41C92C6
:100450006F5F80E018C067FD09C0FA01E60FF11D6B
:1004600067FDFA9590819052913608F090E0E82F60
:10047000F0E075E0979FE00DF11D1124E859FF4F62
:10048000E491EC938F5F1196AC15BD05F1F6B39432
:100490008EE1B81269CF2F5F3F4F2B3F45E0340705
:1004A00014F020E030E0B12C5FCF1F920F920FB616
:1004B0000F9211242F933F934F935F936F937F93EA
:1004C0008F939F93AF93BF93EF93FF938091C60059
:1004D000D7DEFF91EF91BF91AF919F918F917F9167
:1004E0006F915F914F913F912F910F900FBE0F90A1
:1004F0001F9018951F920F920FB60F9211248F9391
:100500009F93EF93FF9390910701809106019817B5
:1005100069F0E0910601EF5FEF71E0930601F0E012
:10052000E85FFE4F80818093C60005C08091C100C6
:100530008F7D8093C100FF91EF919F918F910F90DC
:100540000FBE0F901F901895109207011092060190
:1005500097FF04C022E02093C0009F779093C500CE
:100560008093C40088E98093C10086E08093C20034
:10057000089597FB072E16F4009406D077FD08D057
:100580000BD007FC05D03EF4909581959F4F0895C0
:10059000709561957F4F0895AA1BBB1B51E107C061
:1005A000AA1FBB1FA617B70710F0A61BB70B881F03
:1005B000991F5A95A9F780959095BC01CD01089592
:0405C000F894FFCFDD
:0405C40028012702E1
:00000001FF
