:1000000023C100003CC100003AC1000038C100001B
:1000100036C1000034C1000032C1000030C1000010
:100020002EC100002CC100002AC1000028C1000020
:1000300026C1000024C1000022C1000020C1000030
:100040001EC100001CC1000068C200008BC200007D
:1000500016C1000014C1000012C1000010C1000050
:100060000EC100000CC10000000000000000004FA5
:1000700000000007000700147F147F14242A7F2A41
:10008000122313086462364955225000050300000C
:10009000001C2241000041221C0014083E081408E4
:1000A000083E0808005030000008080808080060F2
:1000B00060000020100804023E5149453E00427F86
:1000C000400042615149462141454B311814127F8D
:1000D0001027454545393C4A494930017109050316
:1000E0003649494936064949291E36360000005628
:1000F00036000000081422410014141414140041A6
:100100002214080201510906304979413E7E11113D
:10011000117E7F494949363E414141227F4141227A
:100120001C7F494949417F090909013E4149497AF2
:100130007F0808087F00417F41002040413F017F48
:10014000081422417F404040407F020C027F7F0420
:1001500008107F3E4141413E7F090909063E415159
:10016000215E7F09192946464949493101017F012C
:10017000013F4040403F1F2040201F3F4030403F54
:100180006314081463070870080761514945430068
:100190007F41410002040810200041417F00040219
:1001A0000102044040404040000102040020545439
:1001B00054787F50484830384444442038444448B8
:1001C0007F3854545418087E0901020C5252523E92
:1001D0007F0804047800447D40002040443D007FB7
:1001E0001028440000417F400078045844787C087F
:1001F00004047838444444387C1414140808141453
:10020000187C7C080404084854545420043F44409B
:10021000203C4040207C1C2040201C3C4030403C86
:1002200044281028440C5050503C4464544C440022
:100230000836410000007F000000413608000C0233
:100240000C100C000000000011241FBECFEFD8E0FE
:10025000DEBFCDBF11E0A0E0B1E0EEE5F6E002C008
:1002600005900D92A630B107D9F713E0A6E0B1E0F2
:1002700001C01D92A832B107E1F749D0EEC1C0CE4E
:10028000CF93C82FAED120910601309107012F3FA7
:10029000310570F4E0910001F0910101A9014F5F77
:1002A0005F4F5093070140930601E20FF31FC08395
:1002B000CC2321F0CA3011F0CD3039F58AE091D14C
:1002C00080910601909107019093050180930401AC
:1002D00020910001309101018F3F910530F4F90127
:1002E000E80FF91F10820196F3CF809102019091DF
:1002F0000301309303012093020190930101809345
:1003000000011092070110920601CF910895CF933A
:10031000DF93CDB7DEB7C857D1090FB6F894DEBF6B
:100320000FBECDBF80E190E847D120E030E0E4E2AD
:10033000F0E0C901BF016AD140910201509103016F
:10034000DA01A20FB31F8A3010F4805D01C0895C0E
:100350008C932F5F3F4F2F3F310559F78AB18C6F38
:100360008AB984B1836084B95A985B985C9A5D9825
:1003700028985F985E98789420E030E040E07E0115
:1003800059E7E50EF11C06E010E0670156E0B52ED6
:10039000A1E051E05A9885E08A95F1F700005A9A59
:1003A000E5E0EA95F1F70000CE01019660E070E02B
:1003B000B5B1BD7FFC01E60FF71FE081EA2311F024
:1003C000E2E001C0E0E0BE2BB5B9E5E0EA95F1F767
:1003D00000005B9AE5E0EA95F1F700005B986F5F3B
:1003E0007F4F6E31710521F7299865E06A95F1F725
:1003F00000005B9AE5E0EA95F1F700005B9865E0A4
:100400006A95F1F700005B9AE5E0EA95F1F70000E4
:100410005B984E968E159F0549F65C9A65E06A9545
:10042000F1F7000050FD289A50FF28988BB18F7784
:1004300051FF02C090E801C090E0892B8BB98BB1CD
:100440008F7B52FF02C090E401C090E0892B8BB9F2
:1004500085E08A95F1F700005D9AE5E0EA95F1F70D
:1004600000005D985C985F5FAA0F583009F092CF4A
:10047000C901B801DFD0A82E87FF03C096E0A92EDE
:10048000A80EC90137FF06C00196B801D3D061504C
:10049000710902C0B801CED0809002019090030192
:1004A000DE01119655E0A51205C01C926F5F7F4FCB
:1004B000A12C19C06F3F710538F4F401E60FF71F46
:1004C00050815052513608F050E0EA2DFF27E7FDE9
:1004D000F09585E0589FE00DF11D1124E859FF4F7C
:1004E000E491EC93A3941196AC15BD05D9F64F5F3A
:1004F0004A3009F04DCF2F5F3F4F4091040150919A
:100500000501B49EC001B59E900D1124821793077A
:1005100014F428E83FEF40E03BCF1F920F920FB654
:100520000F9211242F933F934F935F936F937F9379
:100530008F939F93AF93BF93EF93FF938091C600E8
:100540009FDEFF91EF91BF91AF919F918F917F912E
:100550006F915F914F913F912F910F900FBE0F9030
:100560001F9018951F920F920FB60F9211248F9320
:100570009F93EF93FF939091090180910801981741
:1005800069F0E0910801EF5FEF71E0930801F0E09E
:10059000E65FFE4F80818093C60005C08091C10058
:1005A0008F7D8093C100FF91EF919F918F910F906C
:1005B0000FBE0F901F90189510920901109208011C
:1005C00097FF04C022E02093C0009F779093C5005E
:1005D0008093C40088E98093C10086E08093C200C4
:1005E0000895909109019F5F9F71209108019217D2
:1005F000E1F3E92FF0E0E65FFE4F8083909309017D
:100600008091C10080628093C1000895AA1BBB1B2A
:1006100051E107C0AA1FBB1FA617B70710F0A61B02
:10062000B70B881F991F5A95A9F780959095BC0123
:10063000CD01089597FB072E16F4009406D077FDA0
:1006400008D0E4DF07FC05D03EF4909581959F4FDC
:0E0650000895709561957F4F0895F894FFCF3F
:06065E002A012902FF0041
:00000001FF
