:1000000023C100003CC100003AC1000038C100001B
:1000100036C1000034C1000032C1000030C1000010
:100020002EC100002CC100002AC1000028C1000020
:1000300026C1000024C1000022C1000020C1000030
:100040001EC100001CC1000013C2000036C2000027
:1000500016C1000014C1000012C1000010C1000050
:100060000EC100000CC10000000000000000004FA5
:1000700000000007000700147F147F14242A7F2A41
:10008000122313086462364955225000050300000C
:10009000001C2241000041221C0014083E081408E4
:1000A000083E0808005030000008080808080060F2
:1000B00060000020100804023E5149453E00427F86
:1000C000400042615149462141454B311814127F8D
:1000D0001027454545393C4A494930017109050316
:1000E0003649494936064949291E36360000005628
:1000F00036000000081422410014141414140041A6
:100100002214080201510906304979413E7E11113D
:10011000117E7F494949363E414141227F4141227A
:100120001C7F494949417F090909013E4149497AF2
:100130007F0808087F00417F41002040413F017F48
:10014000081422417F404040407F020C027F7F0420
:1001500008107F3E4141413E7F090909063E415159
:10016000215E7F09192946464949493101017F012C
:10017000013F4040403F1F2040201F3F4030403F54
:100180006314081463070870080761514945430068
:100190007F41410002040810200041417F00040219
:1001A0000102044040404040000102040020545439
:1001B00054787F50484830384444442038444448B8
:1001C0007F3854545418087E0901020C5252523E92
:1001D0007F0804047800447D40002040443D007FB7
:1001E0001028440000417F400078045844787C087F
:1001F00004047838444444387C1414140808141453
:10020000187C7C080404084854545420043F44409B
:10021000203C4040207C1C2040201C3C4030403C86
:1002200044281028440C5050503C4464544C440022
:100230000836410000007F000000413608000C0233
:100240000C100C000000000011241FBECFEFD8E0FE
:10025000DEBFCDBF11E0A0E0B1E0ECE3F5E002C00D
:1002600005900D92AE31B107D9F711E0AEE1B1E0E2
:1002700001C01D92A935B107E1F728D05DC1C0CEFC
:1002800090911E01983158F4E0910001F091010124
:1002900021E0290F20931E01E90FF11D808388239F
:1002A00011F08A3091F48091020190910301209124
:1002B00000013091010130930301209302019093DA
:1002C00001018093000110921E010895CF93DF93E6
:1002D000CDB7DEB7C857D1090FB6F894DEBF0FBE51
:1002E000CDBF80E190E813D18AB18C6F8AB984B117
:1002F000836084B95A985B985C9A5D9828985F9857
:100300005E98A0910201B0910301AE014A5F5F4F78
:1003100080E090E0282F109799F18837910511F42B
:1003200028E72EC020E030E0EE24E394F12CEC0E20
:10033000FD1EE80EF91EF901E80FF91FE837F10577
:10034000C4F4EC91E052E13608F0E0E0890165E0A8
:10035000E69F000D111D1124F801E859FF4F14917B
:10036000F701E20FF31F10832F5F3F4F2530310558
:1003700011F7FA01108211964A5F5F4F0696CACFB5
:10038000283748F4E1E0F0E0EC0FFD1FE20FF11D2B
:1003900010822F5FF5CF31E021E0CE014F965A98C1
:1003A000F5E0FA95F1F700005A9A05E00A95F1F7A1
:1003B000000044E0FE01319655B15D7F61916323F9
:1003C00011F062E001C060E0562B55B915E01A95B6
:1003D000F1F700005B9A55E05A95F1F700005B9841
:1003E000E817F90749F7299865E06A95F1F70000E1
:1003F0005B9A75E07A95F1F700005B98E5E0EA9585
:10040000F1F700005B9AF5E0FA95F1F700005B98D0
:10041000415081F65C9A05E00A95F1F7000020FD55
:10042000289A20FF28984BB14F7721FF02C050E84F
:1004300001C050E0452B4BB94BB14F7B22FF02C0AE
:1004400050E401C050E0452B4BB915E01A95F1F787
:1004500000005D9A45E04A95F1F700005D985C98D0
:100460002F5F283011F0330F9ACF31E021E097CF82
:100470001F920F920FB60F9211242F933F934F9319
:100480005F936F937F938F939F93AF93BF93EF93FC
:10049000FF938091C600F4DEFF91EF91BF91AF9181
:1004A0009F918F917F916F915F914F913F912F918C
:1004B0000F900FBE0F901F9018951F920F920FB6BE
:1004C0000F9211248F939F93EF93FF9390912001AC
:1004D00080911F01981769F0E0911F01EF5FEF71A4
:1004E000E0931F01F0E0EF5DFE4F80818093C60036
:1004F00005C08091C1008F7D8093C100FF91EF9175
:100500009F918F910F900FBE0F901F901895109292
:10051000200110921F0197FF04C022E02093C00029
:100520009F779093C5008093C40088E98093C100B1
:0C05300086E08093C2000895F894FFCF8D
:10053C00410104014146524141465241414652411A
:0E054C00414652414146524141465241000053
:00000001FF
