:1000000023C100003CC100003AC1000038C100001B
:1000100036C1000034C1000032C1000030C1000010
:100020002EC100002CC100002AC1000028C1000020
:1000300026C1000024C1000022C1000020C1000030
:100040001EC100001CC10000C1C20000E4C20000CB
:1000500016C1000014C1000012C1000010C1000050
:100060000EC100000CC10000000000000000004FA5
:1000700000000007000700147F147F14242A7F2A41
:10008000122313086462364955225000050300000C
:10009000001C2241000041221C0014083E081408E4
:1000A000083E0808005030000008080808080060F2
:1000B00060000020100804023E5149453E00427F86
:1000C000400042615149462141454B311814127F8D
:1000D0001027454545393C4A494930017109050316
:1000E0003649494936064949291E36360000005628
:1000F00036000000081422410014141414140041A6
:100100002214080201510906304979413E7E11113D
:10011000117E7F494949363E414141227F4141227A
:100120001C7F494949417F090909013E4149497AF2
:100130007F0808087F00417F41002040413F017F48
:10014000081422417F404040407F020C027F7F0420
:1001500008107F3E4141413E7F090909063E415159
:10016000215E7F09192946464949493101017F012C
:10017000013F4040403F1F2040201F3F4030403F54
:100180006314081463070870080761514945430068
:100190007F41410002040810200041417F00040219
:1001A0000102044040404040000102040020545439
:1001B00054787F50484830384444442038444448B8
:1001C0007F3854545418087E0901020C5252523E92
:1001D0007F0804047800447D40002040443D007FB7
:1001E0001028440000417F400078045844787C087F
:1001F00004047838444444387C1414140808141453
:10020000187C7C080404084854545420043F44409B
:10021000203C4040207C1C2040201C3C4030403C86
:1002200044281028440C5050503C4464544C440022
:100230000836410000007F000000413608000C0233
:100240000C100C000000000011241FBECFEFD8E0FE
:10025000DEBFCDBF11E0A0E0B1E0EAEEF6E002C003
:1002600005900D92A630B107D9F713E0A6E0B1E0F2
:1002700001C01D92A832B107E1F763D034C2C0CEED
:100280008A3010F4805D0895895C0895CF93C82F5B
:1002900082958F70F5DFFED18C2F8F70F1DFCF91BB
:1002A000F9C1CF93C82FF6D12091060130910701F3
:1002B0002F3F310570F4E0910001F0910101A90197
:1002C0004F5F5F4F5093070140930601E20FF31F0A
:1002D000C083CC2321F0CA3011F0CD3081F58AE003
:1002E000D9D180910601D2DF8FE4D4D18BE4D2D171
:1002F0008AE0D0D180910601909107019093050189
:100300008093040120910001309101018F3F9105FC
:1003100030F4F901E80FF91F10820196F3CF8091B4
:100320000201909103013093030120930201909305
:100330000101809300011092070110920601CF91F4
:100340000895CF93DF93CDB7DEB7C857D1090FB665
:10035000F894DEBF0FBECDBF80E190E886D120E0EB
:1003600030E0E4E2F0E0C901BF01A9D1409102010F
:1003700050910301DA01A20FB31F8A3010F4805D9F
:1003800001C0895C8C932F5F3F4F2F3F310559F798
:100390008AB18C6F8AB984B1836084B95A985B98AA
:1003A0005C9A5D9828985F985E987894E12CF12C7F
:1003B000812C6E0129E7C20ED11C6FE4762E73E505
:1003C000972E5601E6E06E2E51E041E05A9865E026
:1003D0006A95F1F700005A9A85E08A95F1F70000D6
:1003E000CE01019620E030E065B16D7FFC01E20FA7
:1003F000F31F7081752311F072E001C070E0672B6C
:1004000065B9E5E0EA95F1F700005B9AF5E0FA9549
:10041000F1F700005B982F5F3F4F2E31310521F738
:10042000299825E02A95F1F700005B9A65E06A9526
:10043000F1F700005B98E5E0EA95F1F700005B9AC0
:10044000F5E0FA95F1F700005B984E968C159D0546
:1004500049F65C9A25E02A95F1F7000040FD289ABC
:1004600040FF28988BB18F7741FF02C090E801C010
:1004700090E0892B8BB98BB18F7B42FF02C090E457
:1004800001C090E0892B8BB965E06A95F1F7000017
:100490005D9A85E08A95F1F700005D985C984F5F62
:1004A000550F483009F092CFE0910201F09103011D
:1004B00070820091020110910301C70180E198024E
:1004C000812D990B1124DCDEF8018183009102015A
:1004D000109103018F2D8F70D3DEF8018283C70145
:1004E00034E0959587953A95E1F78F70C9DEF8016C
:1004F00083838E2D8F70C4DEF80184839582809172
:10050000040190910501892F82958F70B9DEF80161
:1005100086838091040190910501892F8F70B0DE50
:10052000F8018783809104019091050144E096953C
:1005300087954A95E1F78F70A3DEF8018087809157
:100540000401909105018F709BDEF8018187DE0127
:10055000119680E090E030E0353021F41C92019655
:1005600030E017C08F3F910538F4F801E80FF91F0C
:1005700020812052213608F020E0E32FF0E045E012
:10058000249FE00DF11D1124E859FF4FE491EC93F5
:100590003F5F1196AA15BB05F9F683946AE08612AF
:1005A00013CF8FEFE81AF80A20910401309105016A
:1005B000629EC001639E900D11248E159F0524F448
:1005C00058E8E52EFF24FA94812CFECE1F920F925C
:1005D0000FB60F9211242F933F934F935F936F9316
:1005E0007F938F939F93AF93BF93EF93FF938091EC
:1005F000C60057DEFF91EF91BF91AF919F918F9110
:100600007F916F915F914F913F912F910F900FBE0E
:100610000F901F9018951F920F920FB60F921124F2
:100620008F939F93EF93FF9390910901809108011D
:10063000981769F0E0910801EF5FEF71E09308010E
:10064000F0E0E65FFE4F80818093C60005C0809198
:10065000C1008F7D8093C100FF91EF919F918F9199
:100660000F900FBE0F901F901895109209011092D5
:10067000080197FF04C022E02093C0009F77909369
:10068000C5008093C40088E98093C10086E0809310
:10069000C2000895909109019F5F9F712091080108
:1006A0009217E1F3E92FF0E0E65FFE4F808390932D
:1006B00009018091C10080628093C1000895AA1B46
:1006C000BB1B51E107C0AA1FBB1FA617B70710F03D
:1006D000A61BB70B881F991F5A95A9F7809590956F
:0A06E000BC01CD010895F894FFCF8E
:0606EA002A012902FF00B5
:00000001FF
